:020000040800F2
:1000000000500020E53000082D1300082F130008D1
:1000100031130008331300083513000800000000F6
:10002000000000000000000000000000371300087E
:1000300039130008000000003B1300083D130008BE
:100040002D3100082D3100082D3100082D31000818
:100050002D3100082D3100082D3100082D31000808
:100060002D3100082D3100082D3100082D310008F8
:100070002D3100082D3100082D3100082D310008E8
:100080002D3100082D3100082D3100082D310008D8
:100090002D3100082D3100082D3100082D310008C8
:1000A000451300082D3100082D3100082D310008BE
:1000B0005513000865130008751300082D3100085A
:1000C0002D3100082D3100082D3100082D31000898
:1000D0002D3100082D3100082D3100082D31000888
:1000E0002D3100082D3100082D31000800000000DE
:1000F0000000000000000000000000000000000000
:0C01000000000000000000005FF808F1A3
:1001100010B5054C237833B9044B13B10448AFF341
:1001200000800123237010BD740000200000000037
:100130005443000808B5034B1BB103490348AFF310
:10014000008008BD00000000780000205443000833
:1001500081F0004102E000BF83F0004330B54FEA78
:1001600041044FEA430594EA050F08BF90EA020FE5
:100170001FBF54EA000C55EA020C7FEA645C7FEA78
:10018000655C00F0E2804FEA5454D4EB5555B8BF9B
:100190006D420CDD2C4480EA020281EA030382EA0C
:1001A000000083EA010180EA020281EA0303362D9E
:1001B00088BF30BD11F0004F4FEA01314FF4801C71
:1001C0004CEA113102D0404261EB410113F0004F83
:1001D0004FEA03334CEA133302D0524263EB43033A
:1001E00094EA050F00F0A780A4F10104D5F1200ED8
:1001F0000DDB02FA0EFC22FA05F2801841F1000133
:1002000003FA0EF2801843FA05F359410EE0A5F106
:1002100020050EF1200E012A03FA0EFC28BF4CF037
:10022000020C43FA05F3C01851EBE37101F00045ED
:1002300007D54FF0000EDCF1000C7EEB00006EEBFA
:100240000101B1F5801F1BD3B1F5001F0CD3490884
:100250005FEA30004FEA3C0C04F101044FEA4452DB
:1002600012F5800F80F09A80BCF1004F08BF5FEA62
:10027000500C50F1000041EB045141EA050130BD42
:100280005FEA4C0C404141EB010111F4801FA4F1E5
:100290000104E9D191F0000F04BF01460020B1FA3A
:1002A00081F308BF2033A3F10B03B3F120020CDA72
:1002B0000C3208DD02F1140CC2F10C0201FA0CF050
:1002C00021FA02F10CE002F11402D8BFC2F1200CB5
:1002D00001FA02F120FA0CFCDCBF41EA0C0190406B
:1002E000E41AA2BF01EB0451294330BD6FEA0404B4
:1002F0001F3C1CDA0C340EDC04F11404C4F120029F
:1003000020FA04F001FA02F340EA030021FA04F3B0
:1003100045EA030130BDC4F10C04C4F1200220FA07
:1003200002F001FA04F340EA0300294630BD21FA45
:1003300004F0294630BD94F0000F83F4801306BF0B
:1003400081F480110134013D4EE77FEA645C18BFFF
:100350007FEA655C29D094EA050F08BF90EA020F96
:1003600005D054EA000C04BF1946104630BD91EA8E
:10037000030F1EBF0021002030BD5FEA545C05D191
:100380004000494128BF41F0004130BD14F58004D0
:100390003CBF01F5801130BD01F0004545F0FE4144
:1003A00041F470014FF0000030BD7FEA645C1ABF79
:1003B000194610467FEA655C1CBF0B46024650EAB0
:1003C000013406BF52EA033591EA030F41F40021DC
:1003D00030BD00BF90F0000F04BF0021704730B562
:1003E0004FF4806404F132044FF000054FF0000137
:1003F00050E700BF90F0000F04BF0021704730B5F8
:100400004FF4806404F1320410F0004548BF4042CC
:100410004FF000013EE700BF42004FEAE2014FEA21
:1004200031014FEA02701FBF12F07F4393F07F4FFC
:1004300081F06051704732F07F4208BF704793F0FF
:100440007F4F04BF41F40021704730B54FF4607412
:1004500001F0004521F000411CE700BF50EA010215
:1004600008BF704730B54FF000050AE050EA0102BE
:1004700008BF704730B511F0004502D5404261EB2E
:1004800041014FF4806404F132045FEA915C3FF46F
:10049000D8AE4FF003025FEADC0C18BF03325FEA0C
:1004A000DC0C18BF033202EBDC02C2F1200300FABD
:1004B00003FC20FA02F001FA03FE40EA0E0021FAE2
:1004C00002F11444BDE600BF70B54FF0FF0C4CF4D0
:1004D000E06C1CEA11541DBF1CEA135594EA0C0F82
:1004E00095EA0C0F00F0DEF82C4481EA030621EABD
:1004F0004C5123EA4C5350EA013518BF52EA0335F8
:1005000041F4801143F4801338D0A0FB02CE4FF0A9
:100510000005E1FB02E506F00042E0FB03E54FF0D9
:100520000006E1FB03569CF0000F18BF4EF0010ED1
:10053000A4F1FF04B6F5007F64F5407404D25FEACD
:100540004E0E6D4146EB060642EAC62141EA555180
:100550004FEAC52040EA5E504FEACE2EB4F1FD0CC2
:1005600088BFBCF5E06F1ED8BEF1004F08BF5FEA40
:10057000500E50F1000041EB045170BD06F00046F2
:1005800046EA010140EA020081EA0301B4EB5C049F
:10059000C2BFD4EB0C0541EA045170BD41F4801197
:1005A0004FF0000E013C00F3AB8014F1360FDEBFBC
:1005B000002001F0004170BDC4F10004203C35DA98
:1005C0000C341BDC04F11404C4F1200500FA05F31B
:1005D00020FA04F001FA05F240EA020001F00042BC
:1005E00021F0004110EBD37021FA04F642EB060132
:1005F0005EEA430E08BF20EAD37070BDC4F10C045C
:10060000C4F1200500FA04F320FA05F001FA04F21F
:1006100040EA020001F0004110EBD37041F100010B
:100620005EEA430E08BF20EAD37070BDC4F1200516
:1006300000FA05F24EEA020E20FA04F301FA05F27E
:1006400043EA020321FA04F001F0004121FA04F226
:1006500020EA020000EBD3705EEA430E08BF20EAF6
:10066000D37070BD94F0000F0FD101F00046400030
:1006700041EB010111F4801F08BF013CF7D041EAB2
:10068000060195F0000F18BF704703F000465200B6
:1006900043EB030313F4801F08BF013DF7D043EA87
:1006A0000603704794EA0C0F0CEA135518BF95EA3D
:1006B0000C0F0CD050EA410618BF52EA4306D1D1C4
:1006C00081EA030101F000414FF0000070BD50EAE3
:1006D000410606BF1046194652EA430619D094EA6D
:1006E0000C0F02D150EA013613D195EA0C0F05D157
:1006F00052EA03361CBF104619460AD181EA0301AB
:1007000001F0004141F0FE4141F470014FF0000062
:1007100070BD41F0FE4141F4780170BD70B54FF0FD
:10072000FF0C4CF4E06C1CEA11541DBF1CEA13557D
:1007300094EA0C0F95EA0C0F00F0A7F8A4EB05045F
:1007400081EA030E52EA03354FEA013100F0888056
:100750004FEA03334FF0805545EA131343EA12631F
:100760004FEA022245EA111545EA10654FEA0026D4
:100770000EF000419D4208BF964244F1FD0404F58D
:10078000407402D25B084FEA3202B61A65EB0305E9
:100790005B084FEA32024FF480104FF4002CB6EBA6
:1007A000020E75EB030E22BFB61A754640EA0C0026
:1007B0005B084FEA3202B6EB020E75EB030E22BF66
:1007C000B61A754640EA5C005B084FEA3202B6EBA7
:1007D000020E75EB030E22BFB61A754640EA9C0066
:1007E0005B084FEA3202B6EB020E75EB030E22BF36
:1007F000B61A754640EADC0055EA060E18D04FEAF4
:10080000051545EA16754FEA06164FEAC30343EA93
:1008100052734FEAC2025FEA1C1CC0D111F4801F60
:100820000BD141EA00014FF000004FF0004CB6E759
:1008300011F4801F04BF01430020B4F1FD0C88BFF8
:10084000BCF5E06F3FF6AFAEB5EB030C04BFB6EB03
:10085000020C5FEA500C50F1000041EB045170BDF6
:100860000EF0004E4EEA113114EB5C04C2BFD4EB23
:100870000C0541EA045170BD41F480114FF0000EA7
:10088000013C90E645EA060E8DE60CEA135594EA23
:100890000C0F08BF95EA0C0F3FF43BAF94EA0C0F26
:1008A0000AD150EA01347FF434AF95EA0C0F7FF49B
:1008B00025AF104619462CE795EA0C0F06D152EAEF
:1008C00003353FF4FDAE1046194622E750EA4106D3
:1008D00018BF52EA43067FF4C5AE50EA41047FF4E4
:1008E0000DAF52EA43057FF4EBAE12E74FEA410247
:1008F000B2F1E04324BFB3F5001CDCF1FE5C0DD97E
:1009000001F0004C4FEAC0024CEA5070B2F1004FC7
:1009100040EB830008BF20F00100704711F0804FCA
:1009200021D113F13872BCBF01F00040704741F48F
:1009300080114FEA5252C2F11802C2F1200C10FA93
:100940000CF320FA02F018BF40F001004FEAC12377
:100950004FEAD32303FA0CFC40EA0C0023FA02F31B
:100960004FEA4303CCE77FEA625307D150EA0133F1
:100970001EBF4FF0FE4040F44000704701F00040C1
:1009800040F0FE4040F40000704700BF80F000409F
:1009900002E000BF81F0004142001FBF5FEA410357
:1009A00092EA030F7FEA226C7FEA236C6AD04FEA57
:1009B0001262D2EB1363C1BFD2184140484041409C
:1009C000B8BF5B42192B88BF704710F0004F40F44E
:1009D000000020F07F4018BF404211F0004F41F46A
:1009E000000121F07F4118BF494292EA030F3FD036
:1009F000A2F1010241FA03FC10EB0C00C3F1200349
:100A000001FA03F100F0004302D5494260EB4000D7
:100A1000B0F5000F13D3B0F1807F06D340084FEA42
:100A2000310102F10102FE2A51D2B1F1004F40EB37
:100A3000C25008BF20F0010040EA0300704749009F
:100A400040EB000010F4000FA2F10102EDD1B0FA6A
:100A500080FCACF1080CB2EB0C0200FA0CF0AABF5F
:100A600000EBC25052421843BCBFD04018437047FD
:100A700092F0000F81F4000106BF80F40000013203
:100A8000013BB5E74FEA41037FEA226C18BF7FEADA
:100A9000236C21D092EA030F04D092F0000F08BF1C
:100AA0000846704790EA010F1CBF0020704712F003
:100AB0007F4F04D1400028BF40F00040704712F142
:100AC00000723CBF00F50000704700F0004343F0A7
:100AD000FE4040F4000070477FEA226216BF0846DD
:100AE0007FEA23630146420206BF5FEA412390EAA0
:100AF000010F40F4800070474FF0000304E000BF96
:100B000010F0004348BF40425FEA000C08BF704746
:100B100043F0964301464FF000001CE050EA01020A
:100B200008BF70474FF000030AE000BF50EA01021F
:100B300008BF704711F0004302D5404261EB41010C
:100B40005FEA010C02BF84460146002043F0B64331
:100B500008BFA3F18053A3F50003BCFA8CF2083A56
:100B6000A3EBC25310DB01FA02FC634400FA02FC5F
:100B7000C2F12002BCF1004F20FA02F243EB020066
:100B800008BF20F00100704702F1200201FA02FCC8
:100B9000C2F1200250EA4C0021FA02F243EB0200BB
:100BA00008BF20EADC7070474FF0FF0C1CEAD052FF
:100BB0001EBF1CEAD15392EA0C0F93EA0C0F6FD0C0
:100BC0001A4480EA010C400218BF5FEA41211ED09E
:100BD0004FF0006343EA501043EA5111A0FB01318A
:100BE0000CF00040B1F5000F3EBF490041EAD3715F
:100BF0005B0040EA010062F17F02FD2A1DD8B3F1DB
:100C0000004F40EBC25008BF20F00100704790F049
:100C1000000F0CF0004C08BF49024CEA502040EA9B
:100C200051207F3AC2BFD2F1FF0340EAC250704761
:100C300040F400004FF00003013A5DDC12F1190F9F
:100C4000DCBF00F000407047C2F10002410021FA11
:100C500002F1C2F1200200FA02FC5FEA310040F129
:100C6000000053EA4C0308BF20EADC70704792F0A2
:100C7000000F00F0004C02BF400010F4000F013ADA
:100C8000F9D040EA0C0093F0000F01F0004C02BFD5
:100C9000490011F4000F013BF9D041EA0C018FE744
:100CA0000CEAD15392EA0C0F18BF93EA0C0F0AD04A
:100CB00030F0004C18BF31F0004CD8D180EA010070
:100CC00000F00040704790F0000F17BF90F0004F09
:100CD000084691F0000F91F0004F14D092EA0C0FEB
:100CE00001D142020FD193EA0C0F03D14B0218BF7E
:100CF000084608D180EA010000F0004040F0FE40C4
:100D000040F40000704740F0FE4040F4400070475F
:100D10004FF0FF0C1CEAD0521EBF1CEAD15392EADE
:100D20000C0F93EA0C0F69D0A2EB030280EA010CCE
:100D300049024FEA402037D04FF0805343EA111167
:100D400043EA10130CF000408B4238BF5B0042F1C5
:100D50007D024FF4000C8B4224BF5B1A40EA0C006A
:100D6000B3EB510F24BFA3EB510340EA5C00B3EB9C
:100D7000910F24BFA3EB910340EA9C00B3EBD10F8A
:100D800024BFA3EBD10340EADC001B0118BF5FEADC
:100D90001C1CE0D1FD2A3FF650AF8B4240EBC25005
:100DA00008BF20F0010070470CF0004C4CEA5020C6
:100DB0007F32C2BFD2F1FF0340EAC250704740F415
:100DC00000004FF00003013A37E792F0000F00F007
:100DD000004C02BF400010F4000F013AF9D040EA85
:100DE0000C0093F0000F01F0004C02BF490011F419
:100DF000000F013BF9D041EA0C0195E70CEAD15311
:100E000092EA0C0F08D142027FF47DAF93EA0C0FF7
:100E10007FF470AF084676E793EA0C0F04D14B02DB
:100E20003FF44CAF08466EE730F0004C18BF31F08D
:100E3000004CCAD130F000427FF45CAF31F0004387
:100E40007FF43CAF5FE700BF4FF0FF3C06E000BF20
:100E50004FF0010C02E000BF4FF0010C4DF804CD43
:100E60004FEA40024FEA41037FEA226C18BF7FEA53
:100E7000236C11D001B052EA530C18BF90EA010F55
:100E800058BFB2EB030088BFC81738BF6FEAE170E4
:100E900018BF40F0010070477FEA226C02D15FEA80
:100EA000402C05D17FEA236CE4D15FEA412CE1D0EC
:100EB0005DF8040B704700BF844608466146FFE7B3
:100EC0000FB5FFF7C9FF002848BF10F1000F0FBD95
:100ED0004DF808EDFFF7F4FF0CBF012000205DF88E
:100EE00008FB00BF4DF808EDFFF7EAFF34BF012013
:100EF00000205DF808FB00BF4DF808EDFFF7E0FFAC
:100F000094BF012000205DF808FB00BF4DF808EDFC
:100F1000FFF7D2FF94BF012000205DF808FB00BF5F
:100F20004DF808EDFFF7C8FF34BF012000205DF841
:100F300008FB00BF4FEA40024FEA41037FEA226C00
:100F400002D15FEA402C08D17FEA236C02D15FEA2C
:100F5000412C02D14FF0000070474FF00100704764
:100F60004FEA4002B2F1FE4F0FD34FF09E03B3EBB6
:100F700012620DD94FEA002343F0004310F0004FF6
:100F800023FA02F018BF404270474FF0000070474C
:100F900012F1610F01D1420205D110F0004008BFEB
:100FA0006FF0004070474FF00000704742000ED2D3
:100FB000B2F1FE4F0BD34FF09E03B3EB126209D494
:100FC0004FEA002343F0004323FA02F070474FF04A
:100FD0000000704712F1610F01D1420202D14FF0BF
:100FE000FF3070474FF00000704700BFF0B589B088
:100FF00000240494059406940794254B9A6942F0C2
:1010000010029A619A6902F010020092009A9A699D
:1010100042F020029A619A6902F020020192019A3C
:101020009A6942F008029A619A6902F008020292F3
:10103000029A9A6942F004029A619B6903F00403E0
:101040000393039B134F22464FF40051384601F09F
:10105000C3FC114E22464FF44071304601F0BCFCF7
:101060004FF400530493012505950694022307933A
:1010700004A9384601F0C6FB4FF44073049305956C
:101080000694079504A9304601F0BCFB09B0F0BDF9
:101090000010024000100140000C014070B594B0F7
:1010A000002410941194129413940E940F940794A6
:1010B000089409940A940B940C940D940094019450
:1010C00002940394049405940694224D224B2B60C1
:1010D0006C60AC6040F6EB33EB602C616C6180239C
:1010E000AB61284600F0E6FC4FF48056109610A93C
:1010F000284600F061FB284600F0F6FC0E940F94A1
:101100000EA9284600F0E9FF70230793089409947C
:101110000A940B940C940D94224607A9284600F0DB
:101120006DFD042207A9284600F068FD0094019493
:101130000294C4230393049605944FF480430693CA
:101140006946284600F09DFF284600F0CBF914B010
:1011500070BD00BF28010020002C014030B58BB0CD
:101160000024069407940894099404940594009428
:101170000194029403941A4D1A4B2B6047236B6021
:10118000AC604FF6FF73EB602C61AC61284600F059
:1011900091FC4FF48053069306A9284600F00CFBFF
:1011A000284600F0BBFC0494059404A9284600F0EE
:1011B00094FF00940123019302940F2303930822C8
:1011C0006946284600F0B4FD0223009305230393EB
:1011D0000C226946284600F0ABFD0BB030BD00BFC5
:1011E000E80000200004004030B587B000240294DD
:1011F00003940494059400940194104D104B2B60BB
:1012000047236B60AC6044F61F63EB602C61AC61FC
:10121000284600F04FFC4FF48053029302A9284661
:1012200000F0CAFA0821284600F092FC00940194CC
:101230006946284600F051FF07B030BDA8000020E5
:101240000008004030B587B0002402940394049451
:10125000059400940194114D4FF080432B60472377
:101260006B60AC6044F61F63EB602C61AC61284698
:1012700000F020FC4FF48053029302A9284600F0AE
:101280009BFA0821284600F063FC0094019469460B
:10129000284600F022FF07B030BD00BF68010020E3
:1012A00030B591B00024089409940B940C940194E7
:1012B0000294039404940594012206924FF480331F
:1012C00007930A9202250D950E934FF4E0130F93A6
:1012D00006A800F0A1FF0F230193029503944FF499
:1012E000806304930594294601A801F0BDF911B06B
:1012F00030BD08B500F042FFFFF7D2FFFFF776FEE2
:10130000FFF7CCFEFFF72AFFFFF76EFFFFF79AFF0C
:101310004FF47A7000F056FF01F0F2FB4FF07E5070
:1013200001F03AFC012001F0BFFEFEE77047FEE746
:10133000FEE7FEE7FEE770477047704708B500F02C
:101340002FFF08BD08B5024800F0BDFA08BD00BF78
:101350002801002008B5024800F0B5FA08BD00BF1A
:101360006801002008B5024800F0ADFA08BD00BFD2
:10137000E800002008B5024800F0A5FA08BD00BF4B
:10138000A800002082B00E4B9A6942F001029A61D7
:101390009A6902F001020092009ADA6942F08052E2
:1013A000DA61DB6903F080530193019B054A5368BE
:1013B00023F0E06343F00073536002B0704700BF56
:1013C000001002400000014000B58BB000230693DE
:1013D00007930893099303683D4A93420BD0B3F1F6
:1013E000804F2BD03B4A93423CD03B4A93425BD048
:1013F0000BB05DF804FB394B9A6942F400629A61C4
:101400009A6902F400620092009A9A6942F0080216
:101410009A619B6903F008030193019B4FF4805389
:10142000069306A92E4801F0EDF9002201211820AB
:1014300001F0EAFA182001F01BFBD9E703F50433A9
:10144000DA6942F00102DA61DB6903F00103029319
:10145000029B002203211C2001F0D6FA1C2001F07F
:1014600007FBC5E71D4BDA6942F00202DA61DA696F
:1014700002F002020392039A9A6942F008029A610A
:101480009B6903F008030493049B0323069306A9B6
:10149000134801F0B7F9002202211D2001F0B4FA2F
:1014A0001D2001F0E5FAA3E70C4BDA6942F00402D3
:1014B000DA61DB6903F004030593059B0022032135
:1014C0001E2001F0A1FA1E2001F0D2FA90E700BF21
:1014D000002C0140000400400008004000100240C1
:1014E000000C014010B586B00023029303930493CF
:1014F00005930268164B9A4201D006B010BD03F561
:1015000064439A6942F008029A619A6902F00802FB
:101510000092009A9A6942F004029A619B6903F072
:1015200004030193019B4FF4C043029302240394EC
:10153000059402A9074801F065F94FF4407302933E
:101540000394059402A9044801F05CF9D5E700BFB3
:10155000002C0140000C01400008014070B4036AF7
:1015600023F001030362036A4668826922F0730272
:101570000C6844EA020523F002028B6813430D4C09
:10158000A04209D00B4CA0420DD0466085614A684C
:101590004263036270BC704723F00803CA681343B8
:1015A00023F00403EEE726F440764A6932438E695D
:1015B0001643EAE7002C014030B4036A23F4807339
:1015C0000362036A4568C26922F073020C68224311
:1015D00023F400738C6843EA04230F4CA04209D023
:1015E0000D4CA0420ED04560C2614A68C2630362DE
:1015F00030BC704723F40063CC6843EA042323F42F
:101600008063EDE725F440554C6945EA04158C6983
:1016100045EA0415E7E700BF002C014030B4036A37
:1016200023F480530362036A4468C26922F4E642E9
:101630000D6842EA052223F400538D6843EA05331E
:10164000074DA84206D04460C2614A680264036242
:1016500030BC704724F480444D6944EA8514F2E7B5
:10166000002C014010B4036A046A24F001040462EF
:10167000846924F0F00444EA021223F00A030B43C5
:101680008261036210BC704730B4046A24F0100415
:1016900004628469056A24F4407444EA022222F454
:1016A00070421B039BB21A4325F0A005090101F00B
:1016B000A00129438261016230BC704710B4036A03
:1016C00023F0100303628469036A24F4704444EA3B
:1016D000023223F0A00343EA01138261036210BCCB
:1016E000704730B4046A24F480740462C469056AE3
:1016F00024F00304224322F0F0021B01DBB21A4360
:1017000025F40075090201F400712943C2610162E8
:1017100030BC704730B4046A24F480540462C46955
:10172000056A24F4407444EA022222F470421B0346
:101730009BB21A4325F40055090301F400512943D3
:10174000C261016230BC7047836823F0700341F0CE
:10175000070119438160704710B4846824F47F4402
:1017600042EA03230B432343836010BC70470268A3
:10177000D36843F00103D3600268136843F00103A8
:101780001360002070470268D36823F00103D36020
:101790000368196A41F21112114208D1196A40F224
:1017A0004442114203D11A6822F001021A6000205B
:1017B000704770477047704790F83C30012B7DD0E0
:1017C00010B50446012380F83C30022380F83D30F8
:1017D0000268936823F47F4323F0770393600B68D8
:1017E000402B57D010D9702B3ED01FD8502B47D04C
:1017F000602B32D1CA6849680068FFF75FFF60213B
:101800002068FFF7A1FF28E0102B4DD008D9202B2E
:101810004FD0302B21D130210068FFF795FF1CE01D
:10182000DBB900210068FFF78FFF16E0B3F5805F9A
:101830000ED0B3F5005F10D1CB684A6889680068A4
:10184000FFF78AFF2268936843F48043936004E0C3
:101850000268936823F007039360012384F83D3006
:10186000002084F83C0010BDCB684A688968006895
:10187000FFF772FF2268936843F077039360ECE709
:10188000CA6849680068FFF7EDFE50212068FFF73D
:101890005BFFE2E7CA6849680068FFF7E3FE4021A2
:1018A0002068FFF751FFD8E710210068FFF74CFFD1
:1018B000D3E720210068FFF747FFCEE702207047FB
:1018C00070477047704710B5044603681A6912F0F4
:1018D000020F11D0DA6812F0020F0DD06FF0020281
:1018E0001A610123037703689B6913F0030F70D01B
:1018F00001F0F2F90023237723681A6912F0040F2C
:1019000012D0DA6812F0040F0ED06FF004021A61E0
:101910000223237723689B6913F4407F5FD020461E
:1019200001F0DAF90023237723681A6912F0080F0F
:1019300012D0DA6812F0080F0ED06FF008021A61A8
:10194000042323772368DB6913F0030F4ED020466E
:1019500001F0C2F90023237723681A6912F0100FEF
:1019600012D0DA6812F0100F0ED06FF010021A6168
:10197000082323772368DB6913F4407F3DD020469A
:1019800001F0AAF90023237723681A6912F0010FE6
:1019900003D0DA6812F0010F36D123681A6912F009
:1019A000800F03D0DA6812F0800F34D123681A69EF
:1019B00012F0400F03D0DA6812F0400F32D12368E2
:1019C0001A6912F0200F03D0DA6812F0200F30D11C
:1019D00010BDFFF775FF2046FFF773FF8AE720462B
:1019E000FFF76EFF2046FFF76CFF9BE72046FFF7EF
:1019F00067FF2046FFF765FFACE72046FFF760FF73
:101A00002046FFF75EFFBDE76FF001021A61204636
:101A100001F0D2FAC1E76FF080021A61204600F0AF
:101A200086FBC3E76FF040021A612046FFF74AFFCA
:101A3000C5E76FF020021A61204600F077FBC7E788
:101A400003681B4A90420AD0B0F1804F07D0A2F53C
:101A50009432904203D002F58062904203D123F089
:101A600070034A681343124A90420AD0B0F1804F83
:101A700007D0A2F59432904203D002F580629042E2
:101A800003D123F44073CA68134323F080034A69E7
:101A9000134303608B68C3620B688362044B9842F4
:101AA00002D00123436170470B690363F9E700BF6C
:101AB000002C0140B0B110B5044690F83D3063B140
:101AC000022384F83D30214651F8040BFFF7B8FF9C
:101AD000012384F83D30002010BD80F83C30FFF732
:101AE00073FCEDE701207047B0B110B5044690F8E3
:101AF0003D3063B1022384F83D30214651F8040B98
:101B0000FFF79EFF012384F83D30002010BD80F8D0
:101B10003C30FFF74EFEEDE701207047B0B110B545
:101B2000044690F83D3063B1022384F83D302146ED
:101B300051F8040BFFF784FF012384F83D300020A7
:101B400010BD80F83C30FFF735FEEDE7012070470F
:101B500000B338B504460D4690F83D30ABB10223D2
:101B600084F83D30214651F8040BFFF769FF2268E5
:101B7000136823F008031360226813682B43136073
:101B8000012384F83D30002038BD80F83C30FFF759
:101B900012FEE4E70120704730B4036A23F010031B
:101BA0000362036A4468826922F4E6420D6842EAED
:101BB000052223F020038D6843EA05130E4DA84249
:101BC00009D00D4DA8420ED0446082614A688263FC
:101BD000036230BC704723F08003CD6843EA0513ED
:101BE00023F04003EDE724F440644D6944EA8504A2
:101BF0008D6944EA8504E7E7002C014038B590F888
:101C00003C30012B66D00D460446012380F83C3061
:101C1000022380F83D300C2A1AD8DFE802F00719B9
:101C20001919201919193419191947000068FFF7F3
:101C300095FC2268936943F00803936122689369D5
:101C400023F0040393612268936929690B4393612C
:101C5000012384F83D30002084F83C0038BD006842
:101C6000FFF79AFF2268936943F400639361226847
:101C7000936923F48063936122689369296943EA35
:101C800001239361E4E70068FFF796FC2268D369BB
:101C900043F00803D3612268D36923F00403D361BE
:101CA0002268D36929690B43D361D1E70068FFF744
:101CB000B5FC2268D36943F40063D3612268D36919
:101CC00023F48063D3612268D369296943EA01233D
:101CD000D361BDE70220C1E770B4056A25F00105B4
:101CE00005628469056A114EB0420DD0B0F1804F93
:101CF0000AD0A6F59436B04206D006F58066B0420A
:101D000002D044F0010202E024F00304224322F056
:101D1000F0021B01DBB2134325F00A0501F00A01B2
:101D200029438361016270BC704700BF002C0140F1
:101D300038B590F83C30012B58D00D4604460123AD
:101D400080F83C30022380F83D30DAB1042A2AD0F2
:101D5000082A3AD0CB684A6809680068FFF7DAFCBD
:101D60002268D36923F44063D3612268D369A968E8
:101D700043EA0123D361012384F83D30002084F835
:101D80003C0038BDCB684A6809680068FFF7A4FFCB
:101D90002268936923F00C03936122689369A96810
:101DA0000B439361E7E7CB684A6809680068FFF76F
:101DB0006BFC2268936923F4406393612268936902
:101DC000A96843EA01239361D5E7CB684A680968AB
:101DD0000068FFF786FC2268D36923F00C03D36107
:101DE0002268D369A9680B43D361C4E70220C8E71E
:101DF00010B4012303FA01F4036A23EA0403036223
:101E0000036A8A401343036210BC704710B504464E
:101E10000C290DD8DFE801F0070C0C0C1B0C0C0C86
:101E2000210C0C0C27000268D36843F00203D36036
:101E300001222068FFF7DCFF2368104A934218D084
:101E40002268136843F001031360002010BD02688C
:101E5000D36843F00403D360EAE70268D36843F031
:101E60000803D360E4E70268D36843F01003D3604B
:101E7000DEE75A6C42F400425A64E1E7002C01406C
:101E800010B504460C290DD8DFE801F0070C0C0C46
:101E9000250C0C0C2B0C0C0C31000268D36823F0C1
:101EA0000203D36000222068FFF7A2FF23681A4ACA
:101EB000934222D02368196A41F21112114208D1CB
:101EC000196A40F24442114203D11A6822F0010219
:101ED0001A60002010BD0268D36823F00403D360A9
:101EE000E0E70268D36823F00803D360DAE702680A
:101EF000D36823F01003D360D4E7196A41F21112BA
:101F00001142D7D1196A40F244421142D2D15A6CDF
:101F100022F400425A64CDE7002C014010B504467B
:101F20000C290DD8DFE801F0070C0C0C170C0C0C79
:101F30001D0C0C0C23000268D36843F00203D3602D
:101F400001222068FFF754FF2268136843F0010361
:101F50001360002010BD0268D36843F00403D3600F
:101F6000EEE70268D36843F00803D360E8E702684D
:101F7000D36843F01003D360E2E710B4042303FAFC
:101F800001F4036A23EA04030362036A8A401343E9
:101F9000036210BC704710B5044604291DD00829FF
:101FA00021D0A1B12268D36843F08003D36004221A
:101FB0002068FFF7E2FF2268536C43F40043536448
:101FC0002268136843F001031360002010BD02680B
:101FD000D36843F00203D360E4E70268D36843F0B8
:101FE0000403D360DEE70268D36843F00803D360DC
:101FF000D8E710B50446042937D008293BD000297A
:102000002DD000222068FFF7B8FF2368196A40F23C
:102010004442114203D1DA6822F08002DA60236878
:10202000196A41F21112114208D1196A40F2444270
:10203000114203D15A6C22F400425A642368196A8F
:1020400041F21112114208D1196A40F24442114280
:1020500003D11A6822F001021A60002010BD026844
:10206000D36823F00203D360CBE70268D36823F080
:102070000403D360C5E70268D36823F00803D36084
:10208000BFE790F83C30012B25D0012380F83C308D
:10209000CB6823F440738A68134323F480634A684F
:1020A000134323F400630A68134323F480530A693B
:1020B000134323F400534A69134323F480438A698A
:1020C000134323F40043134302685364002380F84E
:1020D0003C30184670470220704790F83C30012B86
:1020E00022D030B4012280F83C20022380F83D3019
:1020F0000468636823F070036360046863680D68B4
:102100002B4363600468A36823F08003A360046822
:10211000A36849680B43A36080F83D20002380F842
:102120003C30184630BC70470220704770477047FB
:1021300010B504460E4B18784FF47A73B3FBF0F3E6
:102140000C4A1068B0FBF3F000F09EFC68B90F2C4D
:1021500001D901200AE0002221464FF0FF3000F0B3
:1021600053FC054B1C60002000E0012010BD00BFA7
:1021700000000020080000200400002008B5074AE5
:10218000136843F010031360032000F02BFC0020C1
:10219000FFF7CEFFFFF7F6F8002008BD0020024051
:1021A000034A1168034B1B780B441360704700BF50
:1021B000A801002000000020014B1868704700BFF4
:1021C000A801002038B50446FFF7F6FF0546B4F134
:1021D000FF3F02D0044B1B781C44FFF7EDFF401B70
:1021E000A042FAD338BD00BF0000002082B0084BE7
:1021F0001B68084AA2FB03235B0A00FB03F0019063
:1022000000BF019B5A1E0192002BF9D102B070470A
:1022100008000020D34D621070B582B004460368F8
:1022200013F0010F2CD0AB4B5B6803F00C03042BB5
:102230001DD0A84B5B6803F00C03082B12D0636819
:10224000B3F5803F41D0002B55D103F1804303F516
:1022500004331A6822F480321A601A6822F4802249
:102260001A6037E09B4B5B6813F4803FE7D0994BD3
:102270001B6813F4003F03D06368002B00F0AE81AD
:10228000236813F0020F75D0924B5B6813F00C0FAC
:102290005FD0904B5B6803F00C03082B54D023698C
:1022A000002B00F089808C4B01221A60FFF784FF1D
:1022B0000546884B1B6813F0020F74D1FFF77CFFB3
:1022C000401B0228F5D903208DE1824A136843F4AC
:1022D00080331360636843B3FFF76EFF05467D4BA1
:1022E0001B6813F4003FCBD1FFF766FF401B642847
:1022F000F5D9032077E1B3F5A02F09D0754B1A6803
:1023000022F480321A601A6822F480221A60E1E70F
:1023100003F18043A3F53C331A6842F480221A602B
:102320001A6842F480321A60D4E7FFF745FF054689
:10233000684B1B6813F4003FA2D0FFF73DFF401B22
:102340006428F5D903204EE1624B5B6813F4803FAB
:10235000A5D1604B1B6813F0020F03D02369012B3A
:1023600040F03E815B4A136823F0F803616943EA59
:10237000C1031360236813F0080F32D0A369002B48
:102380005BD0564B01221A60FFF716FF0546514BF2
:102390005B6A13F0020F21D1FFF70EFF401B0228EA
:1023A000F5D903201FE14B4A136823F0F803616954
:1023B00043EAC1031360DDE7474B00221A60FFF7D1
:1023C000FBFE0546434B1B6813F0020FD2D0FFF70C
:1023D000F3FE401B0228F5D9032004E10120FFF79A
:1023E00005FF236813F0040F00F09880394BDB6978
:1023F00013F0805F33D1374BDA6942F08052DA61F3
:10240000DB6903F080530193019B0125344B1B686A
:1024100013F4807F25D0E368012B36D0002B4CD1FC
:1024200003F1804303F504331A6A22F001021A62B1
:102430001A6A22F004021A622CE0284B00221A6069
:10244000FFF7BAFE0546234B5B6A13F0020FC8D0B4
:10245000FFF7B2FE401B0228F5D90320C3E0002598
:10246000D4E71F4A136843F480731360FFF7A4FE98
:1024700006461B4B1B6813F4807FCCD1FFF79CFEF4
:10248000801B6428F5D90320ADE0124A136A43F09B
:1024900001031362E3687BB3FFF78EFE06460D4B24
:1024A0001B6A13F0020F38D1FFF786FE801B41F242
:1024B00088339842F3D9032095E0052B12D0054BC1
:1024C0001A6A22F001021A621A6A22F004021A62DF
:1024D000E0E700BF00100240000042428004424298
:1024E00000700040424B1A6A42F004021A621A6AF3
:1024F00042F001021A62CDE7FFF75EFE06463C4B52
:102500001B6A13F0020F08D0FFF756FE801B41F242
:1025100088339842F3D9032065E0E5B9E369002BDD
:1025200060D0334A526802F00C02082A5DD0022BB8
:1025300017D0304B00221A60FFF73EFE04462C4BAA
:102540001B6813F0007F47D0FFF736FE001B022800
:10255000F5D9032047E0264AD36923F08053D3619D
:10256000DCE7244B00221A60FFF726FE0546204BCD
:102570001B6813F0007F06D0FFF71EFE401B0228E9
:10258000F5D903202FE0236AB3F5803F1AD018490C
:102590004B6823F47413226A606A024313434B604E
:1025A000144B01221A60FFF707FE0446104B1B680C
:1025B00013F0007F0ED1FFF7FFFD001B0228F5D9B5
:1025C000032010E00A4A536823F40033A1680B4348
:1025D0005360DCE7002006E0002004E0012002E078
:1025E000012000E0002002B070BD0120FBE700BF29
:1025F000001002406000424210B487B0164C94E8CC
:102600000F000DF1180C0CE90F00238AADF804300F
:10261000124B5B6803F00C02082A03D0104807B085
:1026200010BC7047C3F38342624412F8102C13F4B9
:10263000803F0CD0094B5B68C3F34043634413F8FD
:10264000143C074800FB02F0B0FBF3F0E7E7054855
:1026500000FB02F0E3E700BF6C43000800100240FB
:1026600000127A0000093D00624B1B6803F007036B
:102670008B420BD25F4A136823F007030B431360AE
:10268000136803F007038B4240F0AE8070B5036817
:1026900013F0020F17D013F0040F04D0564A5368FA
:1026A00043F4E0635360036813F0080F04D0524A08
:1026B000536843F4605353604F4A536823F0F00368
:1026C0008468234353600D460446036813F0010FEA
:1026D00052D04368012B23D0022B28D0464A1268DF
:1026E00012F0020F00F0828043494A6822F0030290
:1026F00013434B60FFF760FD06466368012B1DD056
:10270000022B2AD03C4B5B6813F00C0F34D0FFF740
:1027100053FD801B41F288339842F3D9032062E0D5
:10272000354A126812F4003FDED101205BE0324AE4
:10273000126812F0007FD7D1012054E02E4B5B6865
:1027400003F00C03042B17D0FFF736FD801B41F27A
:1027500088339842F2D9032045E0274B5B6803F0A9
:102760000C03082B08D0FFF727FD801B41F28833AC
:102770009842F2D9032036E01E4B1B6803F0070392
:10278000AB420AD91B4A136823F007032B4313609B
:10279000136803F00703AB422AD1236813F0040F38
:1027A00006D0154A536823F4E063E1680B43536095
:1027B000236813F0080F07D00F4A536823F46053BF
:1027C000216943EAC1035360FFF716FF0A4B5B68B8
:1027D000C3F30313094AD35CD840094B18600020A7
:1027E000FFF7A6FC002070BD012070470120FAE72A
:1027F0000120F8E70020024000100240804300085A
:1028000008000020F0B482B000263546A0E0002B7E
:1028100058D0012B10D1CE680EE0694FBB4251D089
:1028200048D9684FBB424DD007F58037BB4249D0ED
:10283000A7F58017BB4245D0FF2A57D88446FF2A08
:1028400057D8AC00DCF800300F27A74023EA070375
:1028500006FA04F42343CCF800304B6813F0805F91
:1028600075D0594B9C6944F001049C619B6903F04D
:1028700001030193019BAC08A71C544B53F827306C
:1028800005F00307BF004FF00F0C0CFA07FC23EA1A
:102890000C0C4F4B984232D003F58063984270D0B5
:1028A00003F5806398426ED003F58063984224D08C
:1028B000042325E0A7F58017BB4203D007F5803736
:1028C000BB42B9D18B687BB1012B08D0446108268B
:1028D000B2E7CE680836AFE7CE680C36ACE70461E5
:1028E0000826A9E70026A7E70426A5E700F1040CBF
:1028F000A5E7A5F10804A400A4E7032300E0002352
:10290000BB4043EA0C030234304F47F824304B6895
:1029100013F4803F39D02F4C2368134323604B6856
:1029200013F4003F37D02B4C6368134363604B684C
:1029300013F4801F35D0274CA3681343A3604B6862
:1029400013F4001F33D0234CE3681A43E2600135CF
:102950000F2D32D80124AC400A6822409442F6D1AF
:102960004B68122BB8D03FF658AF022BB1D07FF690
:102970004EAF032BB6D0112B7FF45EAFCE6804367A
:102980005AE70123BCE70223BAE7124C236823EA83
:1029900002032360C3E70F4C636823EA020363600A
:1029A000C5E70C4CA36823EA0203A360C7E7094C00
:1029B000E36823EA0202E260C9E702B0F0BC7047B4
:1029C0000000211000003110001002400000014002
:1029D00000080140000401400AB101617047090488
:1029E00001617047074AD36823F4E0631B041B0CA2
:1029F000000200F4E060184340F0BF6040F4003093
:102A0000D060704700ED00E030B4174BDB68C3F3D3
:102A10000223C3F10704042C28BF04241D1D062D26
:102A200001D9033B00E000234FF0FF3505FA04F421
:102A300021EA0401994005FA03F322EA030319434A
:102A4000002809DB0901C9B200F1604000F56140CE
:102A500080F8001330BC704700F00F000901C9B2C4
:102A6000024B1954F6E700BF00ED00E014ED00E062
:102A700000F01F02400901239340024A42F820302F
:102A8000704700BF00E100E00138B0F1807F0AD25A
:102A9000064B5860064AF02182F823100020986007
:102AA00007221A6070470120704700BF10E000E065
:102AB00000ED00E00F4B1A6842F001021A605968FD
:102AC0000D4A0A405A601A6822F0847222F4803259
:102AD0001A601A6822F480221A605A6822F4FE02F0
:102AE0005A604FF41F029A60044B4FF000629A60E4
:102AF000704700BF001002400000FFF800ED00E04A
:102B000038B50023174A1360174A1360174A136039
:102B1000174B184A1A600024174B1C80174B1C7067
:102B2000174B1C70174B1C7022464FF4005116486F
:102B3000FFF752FF154D22464FF400712846FFF76C
:102B40004BFF22464FF480712846FFF745FF104C9B
:102B500008212046FFF7E2F90C212046FFF7DEF9B5
:102B600038BD00BF90000020940000209800002095
:102B7000A000002000401C469C000020A500002072
:102B8000A6000020A400002000100140000C01401D
:102B9000E800002000000000F8B504464A4B1D681C
:102BA0004A492846FEF7B2F968B92846FDF734FCD1
:102BB0003DA3D3E90023FDF787FCFDF797FE00F066
:102BC000DBFA054601E04FF07E5521462846FEF728
:102BD00093F900284DD029462846FDF7E5FF054624
:102BE00021462046FDF7E0FF2946FDF7D3FEFDF71D
:102BF00013FC2FA3D3E90023FDF766FC2EA3D3E932
:102C00000023FDF78BFDFDF771FE0546204600F021
:102C1000F1FAFDF701FC24A3D3E90023FDF77EFDC3
:102C2000FDF764FE0446284B1860294B1968FDF730
:102C3000B1FEFDF7F1FB06460F462846FDF7ECFB1B
:102C40001FA3D3E90023FDF73FFC02460B463046A5
:102C50003946FDF763FDFDF749FE1E4B18601B4921
:102C60002046FEF75DF9F0B1174B4FF07E521A6027
:102C700019E0204600F0BEFAFDF7CEFB0AA3D3E927
:102C80000023FDF74BFDFDF731FE0F4B18600F4998
:102C9000FEF746F918B10C4B4FF07E521A600A4B02
:102CA0001A680B4B1A60F8BD182D4454FB210940DB
:102CB00067666666662662407B14AE47E17A1C4012
:102CC0000000000080842E4194000020EE7CFF3E36
:102CD0009000002098000020A94B984200D0704737
:102CE0002DE9F04184B00446037F042B06D0237FF6
:102CF000082B00F0A38004B0BDE8F081A14B1B7845
:102D000043B90368DB6B9BB29F4A13809D4B012242
:102D10001A70F0E79D48FEF736FD2368DB6B9BB227
:102D2000ADF80430BDF80400974B1B88C01AFDF7BE
:102D3000E7FE029002980021FEF7D4F800286AD13D
:102D400002989349FDF730FFFDF766FB06460F46F4
:102D5000904D2868FDF760FB87A3D3E90023FDF7BA
:102D6000B3FB02460B4630463946FDF7F7F9FDF74F
:102D7000BDFD2860884B1968884B1868FEF7D0F8AD
:102D800058B10298864B1968FDF70EFF824D2B68EB
:102D900001461846FDF700FE2860BDF804309BB2DE
:102DA000794A13807C4B18687E49FEF79BF800280F
:102DB00038D000224FF480717B48FFF70DFE7B4B2B
:102DC00001221A707A4B00221A70734F39684FF043
:102DD0007E50FDF7DFFD6F4E3168FDF7E5FE6B4D70
:102DE000D5F80080FEF7E2F880B2C8F82C00396808
:102DF0004FF07E50FDF7CEFD3168FDF7D5FEFEF7B2
:102E0000D5F880B2E8602846FEF7B1FC2B686FF079
:102E100001021A616BE702984FF08F41FDF7BCFD8C
:102E200002908DE70023614A1370614A13700122FA
:102E30004FF400715C48FFF7CFFD58E7514B1B780A
:102E400043B923681B6C9BB24F4A13804D4B012240
:102E50001A7050E75748FEF796FC23681B6C9BB22C
:102E6000ADF80630BDF80600474B1B88C01AFDF7C9
:102E700047FE039003980021FEF734F8002868D13C
:102E800003984349FDF790FEFDF7C6FA06460F4644
:102E9000404C2068FDF7C0FA37A3D3E90023FDF7C3
:102EA00013FB02460B4630463946FDF757F9FDF74E
:102EB0001DFD2060384B1968384B1868FEF730F854
:102EC00058B10398364B1968FDF76EFE324C2368F3
:102ED00001461846FDF760FD2060BDF806309BB244
:102EE000294A13802C4B18682E49FDF7FBFF002858
:102EF00036D000224FF400712B48FFF76DFD2B4BAD
:102F000000221A702A4B01221A70234E31684FF0AA
:102F10007E50FDF73FFD1F4D2968FDF745FE254C0E
:102F20002768FEF743F880B2F86231684FF07E50B0
:102F3000FDF730FD2968FDF737FEFEF737F880B260
:102F4000E0602046FEF713FC23686FF001021A616F
:102F5000D1E603984FF08F41FDF71EFD03908FE7F8
:102F60000023124A1370124A137001224FF4807129
:102F70000D48FFF731FDBEE60000007B14AEEF3FC9
:102F8000E8000020A40000209C0000206801002030
:102F90000AD7233CA00000209000002094000020CD
:102FA000980000209A99193F000C0140A5000020CC
:102FB000A6000020A800002010B50446114B98423E
:102FC00003D0114B9C420ED010BD104B1B78002B30
:102FD000F7D00E4B00221A7001224FF400710C48FA
:102FE000FFF7FAFCEDE70B4B1B78002BECD0094BFD
:102FF00000221A7001224FF480710548FFF7ECFCA3
:10300000E2E700BF68010020A8000020A500002022
:10301000000C0140A600002008B501460A48FDF753
:1030200077FE4FF07C51FDF7B7FCFDF7BFFF80B294
:10303000013880B2054A1368D862D0600130401070
:103040005863986308BD00BF4054894C2801002094
:1030500010B5094C00212046FEF7D8FE0421204679
:10306000FEF7D4FE00212046FEF795FF04212046FE
:10307000FEF791FF10BD00BF2801002010B5094CDC
:1030800000212046FEF7FCFE04212046FEF7F8FE54
:1030900000212046FEF7ADFF04212046FEF7A9FFE0
:1030A00010BD00BF2801002010B5044610B10B4B25
:1030B0001B7823B114B9094B1B784BB910BD0848D4
:1030C000FFF7AAFFFFF7C4FF044B01221A70F1E7D4
:1030D000FFF7D4FF014B00221A70EFE7A700002092
:1030E000004CB846002103E00B4B5B5843500431C1
:1030F0000A480B4B42189A42F6D30A4A02E00023D0
:1031000042F8043B084B9A42F9D3FFF7D3FC00F096
:103110000FF8FEF7EEF87047744700080000002033
:103120007400002074000020AC010020FEE70000C5
:1031300070B500260C4D0D4C641BA410A64209D19D
:1031400001F008F900260A4D0A4C641BA410A6429F
:1031500005D170BD55F8043B98470136EEE755F8A8
:10316000043B98470136F2E76C4700086C470008BB
:103170006C4700087047000800B51D4A20F0004366
:10318000934283B019DDB3F1FF4F05DB0146FDF734
:1031900001FC03B05DF804FB694600F0C9F900F0DA
:1031A0000300012810D0022819D090B1019900988D
:1031B00000F086FB00F10040EBE70022002100F068
:1031C000ADFF03B05DF804FB0199009800F078FBB7
:1031D000DFE701220199009800F0A0FFD9E7012262
:1031E0000199009800F09AFF00F10040D1E700BF7C
:1031F000D80F493FF0B58BB0044600F04DF8234E90
:10320000054696F9003001330DD021462046FDF7E2
:1032100091FE074638B9204600F0FEFF4FF07E5180
:10322000FDF77EFE10B928460BB0F0BD0122184B09
:103230002046CDE900230897FDF7EEF802460B463D
:103240001448CDE90423CDE9022300F0DFFF96F90D
:103250000030CDE90601022B0DD0684600F0D4FF06
:1032600048B1089B63B9DDE90601FDF73FFB054660
:1032700028460BB0F0BD01F067F821230360F0E7AA
:1032800001F062F8089B0360EDE700BF70000020CA
:1032900090430008984300082DE9F04720F00045CE
:1032A000B5F17E5F044600F0B18000F3A780B5F170
:1032B0007C5F06460DDAB5F1485F80F2CC808C4920
:1032C000FDF76AFB4FF07E51FDF72AFE002840F023
:1032D000C080204600F0A0FF01464FF07E50FDF771
:1032E00059FB4FF07C51FDF75FFC04468149FDF727
:1032F0005BFC8149FDF750FB2146FDF755FC7F49FA
:10330000FDF748FB2146FDF74FFC7D49FDF744FBE7
:103310002146FDF749FC7B49FDF73CFB2146FDF7C3
:1033200043FC7949FDF738FB2146FDF73DFC774921
:1033300080462046FDF738FC7549FDF72BFB2146FA
:10334000FDF732FC7349FDF727FB2146FDF72CFC06
:103350007149FDF71FFB2146FDF726FC4FF07E511A
:10336000FDF71AFB8146204600F056FA6B4B0746E4
:103370009D4259DC0146FDF70FFB49468246404617
:10338000FDF7C6FC01465046FDF70EFC27F47F65AD
:1033900025F00F05804629462846FDF705FC014625
:1033A0002046FDF7F7FA294604463846FDF7F4FAB9
:1033B00001462046FDF7ACFC0146FDF7EDFA01465B
:1033C0005748FDF7E7FA01464046FDF7E3FA29467C
:1033D00004462846FDF7E0FA01465248FDF7DAFABE
:1033E00001462046FDF7D6FA01464E48FDF7D2FACF
:1033F000002E09DC00F10040BDE8F0870146FDF732
:10340000C9FA0146FDF784FCBDE8F0874649FDF79F
:10341000CBFB434905462046FDF7C6FB014628463F
:10342000FDF7BAFABDE8F08749464046FDF770FC63
:103430003946FDF7B9FB3946FDF7AEFA0146FDF70F
:10344000ABFA3A49FDF7A8FA01463748FDF7A2FA68
:10345000CEE72046D8E70146FDF7A6FB05462549FD
:10346000FDF7A2FB2449FDF797FA2946FDF79CFBDF
:103470002249FDF78FFA2946FDF796FB2049FDF713
:103480008BFA2946FDF790FB1E49FDF783FA294682
:10349000FDF78AFB1C49FDF77FFA2946FDF784FBFF
:1034A0001A4906462846FDF77FFB1949FDF772FACF
:1034B0002946FDF779FB1749FDF76EFA2946FDF716
:1034C00073FB1549FDF766FA2946FDF76DFB4FF0D2
:1034D0007E51FDF761FA01463046FDF719FC2146A1
:1034E000FDF762FB2146FDF757FABDE8F08700BF04
:1034F000CAF2497108EF1138047F4F3A4611243D52
:10350000A80A4E3E90B0A63EABAA2A3E2EC69D3DCE
:103510006133303F2D57014039D119409999793F96
:103520002EBD3BB3DB0F493FDB0FC93F2EBD3B3305
:103530002DE9F04FAB4A20F00044944289B06EDD93
:10354000A94A064694420D461CDC002824F00F04CC
:10355000A64940F31E81FDF71DFAA54B06469C4285
:103560006CD0A449FDF716FA014630462960FDF7F4
:1035700011FAA049FDF70EFA01276860384609B034
:10358000BDE8F08F9C4A94426DDDB4F1FF4F4EDAF6
:10359000E715863FA4EBC7542046FDF7E1FCFDF795
:1035A000AFFA0346204619460593FDF7F3F94FF0AD
:1035B0008741FDF7F9FA8046FDF7D2FCFDF7A0FA46
:1035C0000446404621460694FDF7E4F94FF0874152
:1035D000FDF7EAFA00210790FDF77AFC002800F0D9
:1035E000B68020460021FDF773FC002814BF01239C
:1035F0000223022081493A46CDE90001294605A867
:1036000000F022FA002E0746B8DAD5E9002302F1CD
:10361000004203F1004347422A606B60AEE7002797
:103620000022086038464A6009B0BDE8F08F0146C4
:10363000FDF7B0F90027686028609FE77049FDF743
:10364000A9F970490446FDF7A5F90146204629600D
:10365000FDF7A0F96B49FDF79DF901276860384631
:1036600009B0BDE8F08F00F0D7FD67498046FDF74F
:103670009BFA4FF07C51FDF78FF9FDF771FC07467F
:10368000FDF73EFA59498346FDF78EFA014640465A
:10369000FDF780F9574981465846FDF785FA1F2FF7
:1036A00082460146484620DCFDF774F9574B7A1EE6
:1036B00053F8223024F0FF029A42804618D0C5F811
:1036C000008041464846FDF765F95146FDF762F92D
:1036D000002E6860BFF652AF08F1004800F10040CC
:1036E000C5F8008068607F4248E7FDF753F98046DF
:1036F000E215C8F3C753D31A082BE0DD40495846FA
:103700000392FDF751FA804601464846FDF742F91B
:10371000014604464846FDF73DF94146FDF73AF9B2
:10372000804638495846FDF73FFA4146FDF732F9E1
:10373000014682462046FDF72DF9039AC0F3C75390
:10374000D21A192A804604DC2860A146B9E703236F
:103750004FE72F495846FDF727FA80460146204695
:10376000FDF718F9014681462046FDF713F9414659
:10377000FDF710F9044627495846FDF715FA21468A
:10378000FDF708F9014682464846FDF703F98046F1
:1037900095E7FDF701F9164B06469C420ED01549F8
:1037A000FDF7FAF8014630462960FDF7F3F81149B4
:1037B000FDF7F2F84FF0FF376860DFE61049FDF7DC
:1037C000EBF810490446FDF7E7F80146204629606A
:1037D000FDF7E0F80B49FDF7DFF84FF0FF376860C1
:1037E000CCE600BFD80F493FE3CB1640800FC93F5E
:1037F000D00FC93F43443537800F49431C4400086C
:103800000044353708A3852E84F9223F9C430008E5
:1038100000A3852E32318D2420F00042B2F1FF4FFB
:10382000F8B504462FD26AB3002803463EDB14F0F5
:10383000FF4F4FEAE0502DD00026C3F316037F3828
:1038400043F40002C1074FEA42034FF0190448BF96
:10385000930031464FF0807247108D189D4202DC74
:103860005B1BA9181644013C4FEA43034FEA52027E
:10387000F3D113B1013626F00106701000F17C502F
:1038800000EBC750F8BD0146FDF78EF92146FDF764
:1038900083F8F8BD14F4000201D00EE00A465B0084
:1038A0001C0202F10101F9D5801AC5E70146FDF7B6
:1038B00071F80146FDF72CFAF8BD4FF0FF32F3E73F
:1038C0002DE9F84320F00045B5F1485F06460F4664
:1038D00049DAFDF745FB002800F09D80314630466F
:1038E000FDF762F904464E49FDF75EF94D49FDF7D3
:1038F00053F82146FDF758F94B49FDF74BF821469F
:10390000FDF752F94949FDF747F82146FDF74CF913
:103910004749FDF73FF82146FDF746F94549FDF7D0
:103920003BF82146FDF740F980464FF07C51204698
:10393000FDF73AF9414605462046FDF735F9394687
:1039400004463046FDF730F901462046FDF722F8DF
:1039500001462846FDF71EF801464FF07E50FDF760
:1039600019F8BDE8F8830146FDF71EF904462C4915
:10397000FDF71AF92B49FDF70FF82146FDF714F969
:103980002949FDF707F82146FDF70EF92749FDF70C
:1039900003F82146FDF708F92549FCF7FBFF21460E
:1039A000FDF702F92349FCF7F7FF2146FDF7FCF884
:1039B000214B80469D42B8DD204B9D4227DC05F11E
:1039C0007F4529464FF07E50FCF7E4FF81464FF0DB
:1039D0007C512046FDF7E8F82946FCF7DBFF41461D
:1039E00005462046FDF7E0F8394604463046FDF727
:1039F000DBF801462046FCF7CDFF01462846FCF7E0
:103A0000C9FF01464846FCF7C5FFBDE8F883DFF86B
:103A100034900B4DDBE74FF07E50BDE8F88300BFDC
:103A20004ED747ADF6740F317CF29334010DD03789
:103A3000610BB63AABAA2A3D9999993E0000483FDE
:103A40000000903E0000383F2DE9F04F1C46DDB0ED
:103A50000991611E06930191A04B66990B9253F850
:103A6000211005460391111DC0F29782D31E44BF59
:103A700013460433DB1005930133DB000A93DDE9C1
:103A80000A239B1A0493059A019BD61A039A12EBF8
:103A9000030818D408F101080024B04420AFDDF871
:103AA0009C9108E059F82600FDF72AF801364645B2
:103AB00047F8040B07D0002EF4DA204601364645BD
:103AC00047F8040BF7D1039B002BC0F205834FF09E
:103AD0000009069B2A1F9B000399D518029220AA71
:103AE00089000093D71849AB079103EB010848AE52
:103AF000019B002BB8BFCB460FDBBA46CB46029CDE
:103B00005AF8041D54F8040FFDF74EF801465846C4
:103B1000FCF742FFAC428346F2D146F804BB46456F
:103B200007F10407E4D100990298079A0144A2F131
:103B300008030D460CA90B4407930BAB1344039EDB
:103B400008934FEA86095CAB4B44002E53F850AC07
:103B500022DD0DF590780CAF08EB86044FF06E5126
:103B60005046FDF721F8FDF7FBF9FCF7C9FF4FF0D0
:103B700087418346FDF718F801465046FCF70AFFD7
:103B8000FDF7EEF954F8041D47F8040B5846FCF70E
:103B900003FF44458246E1D1049F5046394600F078
:103BA0007DFB4FF078510446FCF7FEFF00F038FB38
:103BB0004FF08241FCF7F8FF01462046FCF7EAFE91
:103BC0000446FDF7CDF98246FCF79AFF01462046F0
:103BD000FCF7E0FE002F044640F38280701E0CAB21
:103BE00053F82030C7F1080243FA02F101FA02F259
:103BF0009B1AC7F1070843FA08F80CAAB8F1000F9E
:103C000042F820308A4476DC00212046FDF760F936
:103C1000002800F0B380039B771EBB4210DC00221B
:103C200006F18043013B0CA9089801EB830353F88C
:103C30000419834242EA0102F9D1002A40F0F780D8
:103C4000039B0CAA013B52F82330002B40F0E98083
:103C50000127079B53F804290137002AFAD006F1FF
:103C6000010AD046F3190093059B0AEB0309069B52
:103C700009F180499C1920AB03EB8404679B09F18F
:103C8000FF3903EB890948AB03EB8A0A59F8040FA3
:103C9000FCF736FF2646019B46F8040B002B1BDB86
:103CA000DDF808B00027043C01E054F804095BF893
:103CB000041FFCF779FF01463846FCF76DFEAB4563
:103CC0000746F2D1009B08F1010898454AF8047BA9
:103CD0003446DBDD1E4634E70027F3E76047000883
:103CE00040F09680731E0CAA52F823304FEA232826
:103CF000B8F1000F88DD002E0AF1010A40F3CF81F0
:103D00000C9F002F6CD1012E09D001220CA951F873
:103D1000047F531C002F65D19E421A46F7D1049BA5
:103D2000002B0DDD012B00F02E81022B08D1721E1D
:103D30000CAB53F822300CA903F03F0341F82230BA
:103D4000B8F1020F7FF460AF21464FF07E50FCF7D0
:103D500021FE0446002F3FF457AF04994FF07E50E8
:103D600000F09CFA01462046FCF714FE04460021B0
:103D70002046FDF7ADF800287FF44DAFDDE90A32AB
:103D80002046991ACDF8048000F088FA4FF0874158
:103D90000446FDF7BBF8002800F083814FF06E5118
:103DA0002046FCF701FFFDF7DBF8FCF7A9FE4FF01A
:103DB00087410546FCF7F8FE01462046FCF7EAFD80
:103DC000FDF7CEF80CAB43F826002846FDF7C8F8FF
:103DD000049B771C083304930CAB43F827003CE0AA
:103DE00001230022C7F580770CA99E4241F822707A
:103DF0000CDD51F82320894401EB830300E01A68AD
:103E0000C2F1FF0243F8042B4B45F8D1012786E7A6
:103E10004FF07C51FDF77AF8002840F0C3808046CF
:103E2000F2E606F1010AD046CDF800A01CE7049A9C
:103E30000CAB53F82730083ACDF80480049263B9EC
:103E400006F18043023B0CA901EB830353F80419EC
:103E5000013F083A0029F9D0049204994FF07E50AE
:103E600000F01CFA002F0446C0F23F814FF06E565E
:103E70004FEA870848AA08F1040390440CAA049367
:103E800002EB030908F1040559F8040DFCF738FEAC
:103E90002146FCF789FE314645F8040D2046FCF723
:103EA00083FE0CAB99450446EED1DDF80C9034ABA3
:103EB000B9F1000F0293A8F104084FF00006CDF805
:103EC00014A09B46009723DB924D474692484FF043
:103ED000000A002403E0B4420DDC55F8040F57F843
:103EE000041FFCF761FE01465046FCF755FD013406
:103EF000A1458246EFDA009A4BF804AB9642A8F14E
:103F0000040806F1010306D0B9F1000F1E46DBDA02
:103F10004FF0000AEFE7669BDDF814A0009F032B2B
:103F20002CD8DFE803F0A60202500024049B2046B0
:103F30001D46029B1C461D4455F8041DFCF72CFD34
:103F4000AC42F9D1044621463498FCF723FD019B8D
:103F5000002B40F0AE80099B002F1C600CDD01247B
:103F600034AD013455F8041FFCF716FDA742F8DA0A
:103F7000019B0BB100F10040099B58600AF007005B
:103F80005DB0BDE8F08F721E0CAB53F822300CA967
:103F900003F07F0341F82230D2E608230A9300237E
:103FA00005936CE5002E0AF1010AC8BF4FF0020824
:103FB0003FF7A6AE21464FF07E50FCF7EBFC4FF0EA
:103FC0000208044620E6002F40F3A280BD005CAB4F
:103FD0002B4453F8A08C34AB9B4602935C1954F8E5
:103FE000049C41464846FCF7D7FC06460146484635
:103FF000FCF7D0FC4146FCF7CFFC206044F8046D90
:10400000A345B046EBD1012F40F38280029B35AF30
:104010005E1934465CAB1D4455F8A08C54F8049CE2
:1040200041464846FCF7B8FC054601464846FCF7C1
:10403000B1FC4146FCF7B0FC206044F8045DA742A7
:10404000A846EBD10020029C0436083456F8041D23
:10405000FCF7A2FCB442F9D10199349A359B81BB9B
:1040600009990A604B6088600AF007005DB0BDE8FE
:10407000F08F049B00201C46029D2C4454F8041D24
:10408000FCF78AFCA542F9D1019B0BB100F100407D
:10409000099B18600AF007005DB0BDE8F08F0027AB
:1040A0003DE62046FCF75CFF0CAB374643F82600A4
:1040B000D3E6099B04F10044002F1C603FF74FAF8B
:1040C00058E7099902F1004203F1004300F1004072
:1040D0000A604B608860C7E72B1F0293069B9B001A
:1040E0000093039B9B0007931DE5669B032B3FF604
:1040F00045AF01A252F823F00D4100080941000824
:1041000009410008C73F000800241CE70020BBE766
:104110000020A1E7344700080000C93F2DE9F8431B
:1041200020F00043B3F1485F04460F46904603DA9F
:10413000FCF716FF002858D021462046FCF734FD36
:10414000054601462046FCF72FFD2949064628462C
:10415000FCF72AFD2749FCF71DFC2946FCF724FD46
:104160002549FCF719FC2946FCF71EFD2349FCF7FD
:1041700011FC2946FCF718FD2149FCF70DFC81468E
:10418000B8F1000F22D04FF07C513846FCF70CFDFF
:10419000494680463046FCF707FD01464046FCF79D
:1041A000F9FB2946FCF700FD3946FCF7F3FB1549FE
:1041B00005463046FCF7F8FC01462846FCF7ECFBC8
:1041C00001462046FCF7E6FBBDE8F8830146284699
:1041D000FCF7EAFC0B49FCF7DDFB3146FCF7E4FC9D
:1041E0002146FCF7D9FBBDE8F8832046BDE8F883FB
:1041F000D3C92E2F342FD7321BEF3836010D50394B
:104200008988083CABAA2A3E00207047002001495B
:10421000704700BF0000F87F20F00040704700BFEB
:10422000F8B520F00047FC0D7F3C162C054624DC39
:10423000002C064614DB164F274138421BD0154987
:10424000FCF7AAFB0021FCF76BFEA0B1002D04DAFD
:104250004FF4000343FA04F4264426EA0700F8BDAD
:104260000C49FCF799FB0021FCF75AFE18B1002D10
:104270000ADB0020F8BD2846F8BDB7F1FF4FFAD39E
:104280000146FCF789FBF8BD002FF4D00248F8BDC9
:10429000FFFF7F00CAF24971000080BF10B50C46D5
:1042A00030F0004103461BD0B1F1FF4F19D210F09E
:1042B000FF4F024619D14FF09841FCF775FC1F4A99
:1042C000034694422BDB0246C0F3C7501938204402
:1042D000FE280EDD18461A4961F31E00FCF764FC47
:1042E00010BD0146FCF758FB10BDC80D2044FE2848
:1042F000F0DC00280EDC10F1160F14DA4CF250320C
:1043000018469442CCBF0E490E4961F31E00FCF7DB
:104310004BFC10BD22F0FF4242EAC05010BD0949DB
:10432000FCF742FC10BD22F0FF42193042EAC050B7
:104330004FF04C51FCF738FC10BD00BFB03CFFFF04
:10434000CAF249716042A20D014B1868704700BF64
:104350000C000020F8B500BFF8BC08BC9E467047B2
:0C436000F8B500BFF8BC08BC9E467047D2
:10436C0002030405060708090A0B0C0D0E0F1010AA
:10437C000102000000000000000000000102030424
:10438C00060708096173696E6600000000000000F2
:10439C00000FC93F000F494000CB9640000FC940A9
:1043AC000053FB4000CB164100ED2F41000F49415B
:1043BC000031624100537B41003A8A4100CB964167
:1043CC00005CA34100EDAF41007EBC41000FC94130
:1043DC0000A0D5410031E24100C2EE410053FB4147
:1043EC0000F20342003A0A420083104200CB16420C
:1043FC0000141D42005C234200A5294200ED2F420F
:10440C0000363642007E3C4200C74242000F494211
:10441C00A2000000F9000000830000006E00000004
:10442C004E000000440000001500000029000000B0
:10443C00FC0000002700000057000000D100000025
:10444C00F500000034000000DD000000C00000009A
:10445C00DB000000620000009500000099000000E5
:10446C003C000000430000009000000041000000F0
:10447C00FE0000005100000063000000AB000000D3
:10448C00DE000000BB000000C50000006100000061
:10449C00B7000000240000006E0000003A0000008D
:1044AC00420000004D000000D2000000E0000000BF
:1044BC0006000000490000002E000000EA00000089
:1044CC0009000000D1000000920000001C00000058
:1044DC00FE0000001D000000EB0000001C000000AE
:1044EC00B100000029000000A70000003E00000001
:1044FC00E80000008200000035000000F50000001C
:10450C002E000000BB0000004400000084000000EE
:10451C00E90000009C000000700000002600000074
:10452C00B40000005F0000007E00000041000000AD
:10453C003900000091000000D60000003900000096
:10454C00830000005300000039000000F40000005C
:10455C009C000000840000005F0000008B00000045
:10456C00BD000000F9000000280000003B00000026
:10457C001F000000F800000097000000FF00000082
:10458C00DE00000005000000980000000F00000095
:10459C00EF0000002F000000110000008B00000055
:1045AC005A0000000A0000006D0000001F0000000F
:1045BC006D000000360000007E000000CF000000FF
:1045CC0027000000CB00000009000000B70000002D
:1045DC004F000000460000003F0000006600000095
:1045EC009E0000005F000000EA0000002D000000AB
:1045FC007500000027000000BA000000C700000092
:10460C00EB000000E5000000F10000007B00000062
:10461C003D0000000700000039000000F70000001A
:10462C008A0000005200000092000000EA00000026
:10463C006B000000FB0000005F000000B1000000F8
:10464C001F0000008D0000005D000000080000004D
:10465C00560000000300000030000000460000007F
:10466C00FC0000007B0000006B000000AB000000B1
:10467C00F0000000CF000000BC0000002000000093
:10468C009A000000F4000000360000001D0000003D
:10469C00A9000000E3000000910000006100000090
:1046AC005E000000E60000001B0000000800000097
:1046BC006500000099000000850000005F0000000C
:1046CC0014000000A0000000680000004000000082
:1046DC008D000000FF000000D800000080000000EA
:1046EC004D000000730000002700000031000000A6
:1046FC000600000006000000150000005600000037
:10470C00CA00000073000000A8000000C9000000EF
:10471C0060000000E20000007B000000C000000010
:10472C008C0000006B0000000000C93F0000F03955
:10473C000000DA370000A2330000842E0000502B5A
:10474C000000C2270000D0220000C41F0000C61BBE
:10475C0000004417040000000700000009000000DE
:04476C00350100080B
:04477000110100082B
:10477400010000001000000000A24A041000002004
:104784000000000000000000000000000000000025
:104794000000000000000000000000000000000015
:1047A4000000000000000000000000000000000005
:1047B40000000000000000000000000000000000F5
:1047C40000000000000000000000000000000000E5
:1047D40000000000000000000000000000000000D5
:0447E40001000000D0
:04000005080030E5DA
:00000001FF
